{
    "contractName": "AlphaShare",
    "abi": [
        {
            "anonymous": false,
            "inputs": [
                {
                    "indexed": false,
                    "internalType": "uint256",
                    "name": "id",
                    "type": "uint256"
                },
                {
                    "indexed": false,
                    "internalType": "string",
                    "name": "key",
                    "type": "string"
                },
                {
                    "indexed": false,
                    "internalType": "string",
                    "name": "ipfsHash",
                    "type": "string"
                },
                {
                    "indexed": false,
                    "internalType": "uint256",
                    "name": "size",
                    "type": "uint256"
                },
                {
                    "indexed": false,
                    "internalType": "uint256",
                    "name": "createdAt",
                    "type": "uint256"
                },
                {
                    "indexed": false,
                    "internalType": "bool",
                    "name": "visibility",
                    "type": "bool"
                },
                {
                    "indexed": false,
                    "internalType": "address",
                    "name": "owner",
                    "type": "address"
                }
            ],
            "name": "AddFile",
            "type": "event"
        },
        {
            "anonymous": false,
            "inputs": [
                {
                    "indexed": false,
                    "internalType": "uint256",
                    "name": "id",
                    "type": "uint256"
                },
                {
                    "indexed": false,
                    "internalType": "address",
                    "name": "owner",
                    "type": "address"
                },
                {
                    "indexed": false,
                    "internalType": "address",
                    "name": "sharee",
                    "type": "address"
                }
            ],
            "name": "StartFileShare",
            "type": "event"
        },
        {
            "anonymous": false,
            "inputs": [
                {
                    "indexed": false,
                    "internalType": "uint256",
                    "name": "id",
                    "type": "uint256"
                },
                {
                    "indexed": false,
                    "internalType": "address",
                    "name": "owner",
                    "type": "address"
                },
                {
                    "indexed": false,
                    "internalType": "address",
                    "name": "sharee",
                    "type": "address"
                }
            ],
            "name": "StopFileShare",
            "type": "event"
        },
        {
            "anonymous": false,
            "inputs": [
                {
                    "indexed": false,
                    "internalType": "uint256",
                    "name": "id",
                    "type": "uint256"
                },
                {
                    "indexed": false,
                    "internalType": "bool",
                    "name": "visibility",
                    "type": "bool"
                }
            ],
            "name": "UpdateVisibility",
            "type": "event"
        },
        {
            "inputs": [
                {
                    "internalType": "string[]",
                    "name": "key",
                    "type": "string[]"
                },
                {
                    "internalType": "string[]",
                    "name": "ipfsHash",
                    "type": "string[]"
                },
                {
                    "internalType": "uint256[]",
                    "name": "size",
                    "type": "uint256[]"
                },
                {
                    "internalType": "bool",
                    "name": "visibility",
                    "type": "bool"
                }
            ],
            "name": "addFiles",
            "outputs": [],
            "stateMutability": "nonpayable",
            "type": "function"
        },
        {
            "inputs": [
                {
                    "internalType": "string",
                    "name": "key",
                    "type": "string"
                }
            ],
            "name": "addFolder",
            "outputs": [],
            "stateMutability": "nonpayable",
            "type": "function"
        },
        {
            "inputs": [],
            "name": "fileCounter",
            "outputs": [
                {
                    "internalType": "uint256",
                    "name": "",
                    "type": "uint256"
                }
            ],
            "stateMutability": "view",
            "type": "function"
        },
        {
            "inputs": [],
            "name": "retreiveFilesSharedWithMe",
            "outputs": [
                {
                    "internalType": "uint256[]",
                    "name": "",
                    "type": "uint256[]"
                },
                {
                    "internalType": "string[]",
                    "name": "",
                    "type": "string[]"
                },
                {
                    "internalType": "string[]",
                    "name": "",
                    "type": "string[]"
                },
                {
                    "internalType": "uint256[]",
                    "name": "",
                    "type": "uint256[]"
                },
                {
                    "internalType": "uint256[]",
                    "name": "",
                    "type": "uint256[]"
                },
                {
                    "internalType": "bool[]",
                    "name": "",
                    "type": "bool[]"
                }
            ],
            "stateMutability": "view",
            "type": "function"
        },
        {
            "inputs": [],
            "name": "retreiveOwnedFiles",
            "outputs": [
                {
                    "internalType": "uint256[]",
                    "name": "",
                    "type": "uint256[]"
                },
                {
                    "internalType": "string[]",
                    "name": "",
                    "type": "string[]"
                },
                {
                    "internalType": "string[]",
                    "name": "",
                    "type": "string[]"
                },
                {
                    "internalType": "uint256[]",
                    "name": "",
                    "type": "uint256[]"
                },
                {
                    "internalType": "uint256[]",
                    "name": "",
                    "type": "uint256[]"
                },
                {
                    "internalType": "bool[]",
                    "name": "",
                    "type": "bool[]"
                }
            ],
            "stateMutability": "view",
            "type": "function"
        },
        {
            "inputs": [
                {
                    "internalType": "uint256",
                    "name": "fileId",
                    "type": "uint256"
                }
            ],
            "name": "retrieveAddressSharedWith",
            "outputs": [
                {
                    "internalType": "address[]",
                    "name": "",
                    "type": "address[]"
                }
            ],
            "stateMutability": "view",
            "type": "function"
        },
        {
            "inputs": [],
            "name": "retrieveFilesSharedByMe",
            "outputs": [
                {
                    "internalType": "uint256[]",
                    "name": "",
                    "type": "uint256[]"
                },
                {
                    "internalType": "string[]",
                    "name": "",
                    "type": "string[]"
                },
                {
                    "internalType": "string[]",
                    "name": "",
                    "type": "string[]"
                },
                {
                    "internalType": "uint256[]",
                    "name": "",
                    "type": "uint256[]"
                },
                {
                    "internalType": "uint256[]",
                    "name": "",
                    "type": "uint256[]"
                },
                {
                    "internalType": "bool[]",
                    "name": "",
                    "type": "bool[]"
                }
            ],
            "stateMutability": "view",
            "type": "function"
        },
        {
            "inputs": [],
            "name": "retrievePublicFiles",
            "outputs": [
                {
                    "internalType": "uint256[]",
                    "name": "",
                    "type": "uint256[]"
                },
                {
                    "internalType": "string[]",
                    "name": "",
                    "type": "string[]"
                },
                {
                    "internalType": "string[]",
                    "name": "",
                    "type": "string[]"
                },
                {
                    "internalType": "uint256[]",
                    "name": "",
                    "type": "uint256[]"
                },
                {
                    "internalType": "uint256[]",
                    "name": "",
                    "type": "uint256[]"
                },
                {
                    "internalType": "bool[]",
                    "name": "",
                    "type": "bool[]"
                }
            ],
            "stateMutability": "view",
            "type": "function"
        },
        {
            "inputs": [
                {
                    "internalType": "uint256[]",
                    "name": "fileIds",
                    "type": "uint256[]"
                },
                {
                    "internalType": "address[]",
                    "name": "addresses",
                    "type": "address[]"
                }
            ],
            "name": "startFileShares",
            "outputs": [],
            "stateMutability": "nonpayable",
            "type": "function"
        },
        {
            "inputs": [
                {
                    "internalType": "uint256",
                    "name": "fileId",
                    "type": "uint256"
                },
                {
                    "internalType": "address[]",
                    "name": "addresses",
                    "type": "address[]"
                }
            ],
            "name": "stopShare",
            "outputs": [],
            "stateMutability": "nonpayable",
            "type": "function"
        },
        {
            "inputs": [
                {
                    "internalType": "uint256[]",
                    "name": "fileIds",
                    "type": "uint256[]"
                },
                {
                    "internalType": "bool",
                    "name": "visibility",
                    "type": "bool"
                }
            ],
            "name": "updateFilesAccess",
            "outputs": [],
            "stateMutability": "nonpayable",
            "type": "function"
        }
    ],
    "bytecode": "6080604052600160065534801561001557600080fd5b50611705806100256000396000f3fe608060405234801561001057600080fd5b50600436106100a95760003560e01c806392980d121161007157806392980d121461012357806393c5a05e14610136578063ab184b511461013e578063b9cf788b14610146578063c712712f1461014e578063fc32e11d1461016157600080fd5b806317251b6e146100ae5780631e966e2b146100c35780635ef0ac2e146100d657806375cc3205146100e9578063817959f71461010c575b600080fd5b6100c16100bc366004611077565b610181565b005b6100c16100d1366004611174565b6101c6565b6100c16100e436600461121e565b610257565b6100f16102e6565b6040516101039695949392919061135b565b60405180910390f35b61011560065481565b604051908152602001610103565b6100c1610131366004611405565b610314565b6100f1610353565b6100f161038c565b6100f16103c5565b6100c161015c366004611458565b6103fe565b61017461016f3660046114a3565b610595565b60405161010391906114bc565b60005b828110156101c0576101ae8484838181106101a1576101a1611509565b90506020020135836105f6565b806101b881611535565b915050610184565b50505050565b60005b8681101561024d5761023b8888838181106101e6576101e6611509565b90506020028101906101f8919061154e565b88888581811061020a5761020a611509565b905060200281019061021c919061154e565b88888781811061022e5761022e611509565b905060200201358761077d565b8061024581611535565b9150506101c9565b5050505050505050565b6006546000908152602081905260409020610276600182018484610f61565b506003810180546001600160a01b0319163390811790915560058201805460ff19908116600190811790925560088401805490911682179055600654600092835260209190915260409091206102cb9161087f565b50600680549060006102dc83611535565b9190505550505050565b6060806060806060806103016102fc6004610894565b6108a8565b949b939a50919850965094509092509050565b60005b828110156101c05761034184848381811061033457610334611509565b9050602002013583610cc4565b8061034b81611535565b915050610317565b6060806060806060806103016102fc60036000336001600160a01b03166001600160a01b03168152602001908152602001600020610894565b6060806060806060806103016102fc60026000336001600160a01b03166001600160a01b03168152602001908152602001600020610894565b6060806060806060806103016102fc60016000336001600160a01b03166001600160a01b03168152602001908152602001600020610894565b60008381526020819052604090206003015483906001600160a01b031633146104425760405162461bcd60e51b815260040161043990611594565b60405180910390fd5b60005b8281101561058e57600085815260208190526040902061048f85858481811061047057610470611509565b905060200201602081019061048591906115cb565b6006830190610d2b565b506104de86600260008888878181106104aa576104aa611509565b90506020020160208101906104bf91906115cb565b6001600160a01b03168152602081019190915260400160002090610d40565b503360009081526003602052604090206104f89087610d40565b50805460038201547fc978941bf896b97fd109f6cd3f5036bf5461de6c62813f5a0527f792556e5cf491906001600160a01b031687878681811061053e5761053e611509565b905060200201602081019061055391906115cb565b604080519384526001600160a01b03928316602085015291169082015260600160405180910390a1508061058681611535565b915050610445565b5050505050565b60008181526020819052604090206003015460609082906001600160a01b031633146105d35760405162461bcd60e51b815260040161043990611594565b60008381526020819052604090206105ed90600601610894565b91505b50919050565b60008281526020819052604090206003015482906001600160a01b031633146106315760405162461bcd60e51b815260040161043990611594565b60005b82518110156101c0576000848152602081905260409020835161067d9085908490811061066357610663611509565b602002602001015182600601610d4c90919063ffffffff16565b506106ce856002600087868151811061069857610698611509565b60200260200101516001600160a01b03166001600160a01b0316815260200190815260200160002061087f90919063ffffffff16565b503360009081526003602052604090206106e8908661087f565b508054600382015485517f3c292a4b2604bdf7fc6cd18169b4af4f47ef4671ef421ad692c33a69b28948fc92916001600160a01b03169087908690811061073157610731611509565b6020026020010151604051610762939291909283526001600160a01b03918216602084015216604082015260600190565b60405180910390a1508061077581611535565b915050610634565b600654600081815260208190526040902090815561079f600182018888610f61565b506107ae600282018686610f61565b506003810180546001600160a01b031916339081179091556004820184905560058201805484151560ff1991821617909155426009840155600883018054909116905560065460009182526001602052604090912061080c9161087f565b5061081960065483610d61565b6006805490600061082983611535565b909155505080546040517f68903f3eddc9e99940fca6617949146cbf00faf7db68f80166abcb8f89076b6c9161086e918a908a908a908a908a9042908b90339061160f565b60405180910390a150505050505050565b600061088b8383610dc3565b90505b92915050565b606060006108a183610e12565b9392505050565b606080606080606080600087516001600160401b038111156108cc576108cc611045565b6040519080825280602002602001820160405280156108f5578160200160208202803683370190505b509050600088516001600160401b0381111561091357610913611045565b60405190808252806020026020018201604052801561094657816020015b60608152602001906001900390816109315790505b509050600089516001600160401b0381111561096457610964611045565b60405190808252806020026020018201604052801561099757816020015b60608152602001906001900390816109825790505b50905060008a516001600160401b038111156109b5576109b5611045565b6040519080825280602002602001820160405280156109de578160200160208202803683370190505b50905060008b516001600160401b038111156109fc576109fc611045565b604051908082528060200260200182016040528015610a25578160200160208202803683370190505b50905060008c516001600160401b03811115610a4357610a43611045565b604051908082528060200260200182016040528015610a6c578160200160208202803683370190505b50905060005b8d51811015610caf5760008e8281518110610a8f57610a8f611509565b60200260200101519050600080600083815260200190815260200160002090508060000154898481518110610ac657610ac6611509565b602002602001018181525050806001018054610ae19061166e565b80601f0160208091040260200160405190810160405280929190818152602001828054610b0d9061166e565b8015610b5a5780601f10610b2f57610100808354040283529160200191610b5a565b820191906000526020600020905b815481529060010190602001808311610b3d57829003601f168201915b5050505050888481518110610b7157610b71611509565b6020026020010181905250806002018054610b8b9061166e565b80601f0160208091040260200160405190810160405280929190818152602001828054610bb79061166e565b8015610c045780601f10610bd957610100808354040283529160200191610c04565b820191906000526020600020905b815481529060010190602001808311610be757829003601f168201915b5050505050878481518110610c1b57610c1b611509565b60200260200101819052508060040154868481518110610c3d57610c3d611509565b6020026020010181815250508060090154858481518110610c6057610c60611509565b60209081029190910101526005810154845160ff90911690859085908110610c8a57610c8a611509565b9115156020928302919091019091015250819050610ca781611535565b915050610a72565b50949c939b5091995097509550909350915050565b60008281526020819052604090206003015482906001600160a01b03163314610cff5760405162461bcd60e51b815260040161043990611594565b6000838152602081905260409020600501805460ff1916831515179055610d268383610d61565b505050565b600061088b836001600160a01b038416610e6e565b600061088b8383610e6e565b600061088b836001600160a01b038416610dc3565b8015610d7857610d7260048361087f565b50610d85565b610d83600483610d40565b505b6040805183815282151560208201527f55ba4c5437741fe726180eb78617b5c7700a36ad4486cd879b6ab11eb2152511910160405180910390a15050565b6000818152600183016020526040812054610e0a5750815460018181018455600084815260208082209093018490558454848252828601909352604090209190915561088e565b50600061088e565b606081600001805480602002602001604051908101604052809291908181526020018280548015610e6257602002820191906000526020600020905b815481526020019060010190808311610e4e575b50505050509050919050565b60008181526001830160205260408120548015610f57576000610e926001836116a2565b8554909150600090610ea6906001906116a2565b9050818114610f0b576000866000018281548110610ec657610ec6611509565b9060005260206000200154905080876000018481548110610ee957610ee9611509565b6000918252602080832090910192909255918252600188019052604090208390555b8554869080610f1c57610f1c6116b9565b60019003818190600052602060002001600090559055856001016000868152602001908152602001600020600090556001935050505061088e565b600091505061088e565b828054610f6d9061166e565b90600052602060002090601f016020900481019282610f8f5760008555610fd5565b82601f10610fa85782800160ff19823516178555610fd5565b82800160010185558215610fd5579182015b82811115610fd5578235825591602001919060010190610fba565b50610fe1929150610fe5565b5090565b5b80821115610fe15760008155600101610fe6565b60008083601f84011261100c57600080fd5b5081356001600160401b0381111561102357600080fd5b6020830191508360208260051b850101111561103e57600080fd5b9250929050565b634e487b7160e01b600052604160045260246000fd5b80356001600160a01b038116811461107257600080fd5b919050565b60008060006040848603121561108c57600080fd5b83356001600160401b03808211156110a357600080fd5b6110af87838801610ffa565b90955093506020915085820135818111156110c957600080fd5b8601601f810188136110da57600080fd5b8035828111156110ec576110ec611045565b8060051b604051601f19603f8301168101818110868211171561111157611111611045565b60405291825284820193508281018501918a83111561112f57600080fd5b928501925b82841015611154576111458461105b565b85529385019392850192611134565b8096505050505050509250925092565b8035801515811461107257600080fd5b60008060008060008060006080888a03121561118f57600080fd5b87356001600160401b03808211156111a657600080fd5b6111b28b838c01610ffa565b909950975060208a01359150808211156111cb57600080fd5b6111d78b838c01610ffa565b909750955060408a01359150808211156111f057600080fd5b506111fd8a828b01610ffa565b9094509250611210905060608901611164565b905092959891949750929550565b6000806020838503121561123157600080fd5b82356001600160401b038082111561124857600080fd5b818501915085601f83011261125c57600080fd5b81358181111561126b57600080fd5b86602082850101111561127d57600080fd5b60209290920196919550909350505050565b600081518084526020808501945080840160005b838110156112bf578151875295820195908201906001016112a3565b509495945050505050565b600082825180855260208086019550808260051b8401018186016000805b8581101561134d57601f1980888603018b5283518051808752845b8181101561131e578281018901518882018a01528801611303565b8181111561132e578589838a0101525b509b87019b601f019091169490940185019350918401916001016112e8565b509198975050505050505050565b60c08152600061136e60c083018961128f565b602083820381850152611381828a6112ca565b9150838203604085015261139582896112ca565b915083820360608501526113a9828861128f565b915083820360808501526113bd828761128f565b84810360a0860152855180825282870193509082019060005b818110156113f45784511515835293830193918301916001016113d6565b50909b9a5050505050505050505050565b60008060006040848603121561141a57600080fd5b83356001600160401b0381111561143057600080fd5b61143c86828701610ffa565b909450925061144f905060208501611164565b90509250925092565b60008060006040848603121561146d57600080fd5b8335925060208401356001600160401b0381111561148a57600080fd5b61149686828701610ffa565b9497909650939450505050565b6000602082840312156114b557600080fd5b5035919050565b6020808252825182820181905260009190848201906040850190845b818110156114fd5783516001600160a01b0316835292840192918401916001016114d8565b50909695505050505050565b634e487b7160e01b600052603260045260246000fd5b634e487b7160e01b600052601160045260246000fd5b6000600182016115475761154761151f565b5060010190565b6000808335601e1984360301811261156557600080fd5b8301803591506001600160401b0382111561157f57600080fd5b60200191503681900382131561103e57600080fd5b6020808252601a908201527f596f7520617265206e6f74207468652066696c65206f776e6572000000000000604082015260600190565b6000602082840312156115dd57600080fd5b61088b8261105b565b81835281816020850137506000828201602090810191909152601f909101601f19169091010190565b89815260e06020820152600061162960e083018a8c6115e6565b828103604084015261163c81898b6115e6565b60608401979097525050608081019390935290151560a08301526001600160a01b031660c09091015295945050505050565b600181811c9082168061168257607f821691505b6020821081036105f057634e487b7160e01b600052602260045260246000fd5b6000828210156116b4576116b461151f565b500390565b634e487b7160e01b600052603160045260246000fdfea26469706673582212203b756b717d276a7401b6c67d982347d50e8af4e8954c284076ea3c508aed498964736f6c634300080d0033",
    "sourcePath": "/home/jm/web3/blockgames/AlphaShare/packages/hardhat/contracts/AlphaShare.sol",
    "compiler": {
        "name": "solc",
        "version": "0.8.13+commit.abaa5c0e"
    },
    "functionHashes": {
        "addFiles(string[],string[],uint256[],bool)": "1e966e2b",
        "addFolder(string)": "5ef0ac2e",
        "fileCounter()": "817959f7",
        "retreiveFilesSharedWithMe()": "ab184b51",
        "retreiveOwnedFiles()": "b9cf788b",
        "retrieveAddressSharedWith(uint256)": "fc32e11d",
        "retrieveFilesSharedByMe()": "93c5a05e",
        "retrievePublicFiles()": "75cc3205",
        "startFileShares(uint256[],address[])": "17251b6e",
        "stopShare(uint256,address[])": "c712712f",
        "updateFilesAccess(uint256[],bool)": "92980d12"
    },
    "gasEstimates": {
        "creation": {
            "codeDepositCost": "1178600",
            "executionCost": "23333",
            "totalCost": "1201933"
        },
        "external": {
            "addFiles(string[],string[],uint256[],bool)": "infinite",
            "addFolder(string)": "infinite",
            "fileCounter()": "2384",
            "retreiveFilesSharedWithMe()": "infinite",
            "retreiveOwnedFiles()": "infinite",
            "retrieveAddressSharedWith(uint256)": "infinite",
            "retrieveFilesSharedByMe()": "infinite",
            "retrievePublicFiles()": "infinite",
            "startFileShares(uint256[],address[])": "infinite",
            "stopShare(uint256,address[])": "infinite",
            "updateFilesAccess(uint256[],bool)": "infinite"
        },
        "internal": {
            "addFile(string calldata,string calldata,uint256,bool)": "infinite",
            "addRemovePublic(uint256,bool)": "infinite",
            "retrieveFiles(uint256[] memory)": "infinite",
            "startFileShare(uint256,address[] memory)": "infinite",
            "updateFilesAccess(uint256,bool)": "infinite"
        }
    }
}